:200000000C94B2000C94DA000C94DA000C944B0F0C94750F0C949F0F0C94DA000C94DA003A
:200020000C94DA000C94DA000C94DA000C945E0D0C94DA000C94DA000C94DA000C94DA005F
:200040000C9461120C94DA000C94E9130C943B140C94DA000C94DA000C94DA000C94DA00A0
:200060000C94DA000C94DA0000C201000100110011000C0000E100000A0025002500210044
:20008000009600001900390039003600127A00001F004600460044008070000022004D002F
:2000A0004D004A00004B00003600750075007200403800004A009C009C0099008025000094
:2000C0007200EC00EC00E900C0120000E900DA01DA01D70160090000D701B603B603B3033B
:2000E000B0040000B3036E076E076B07580200006E07DC0EDC0ED80E2C010000DC0EC11DBC
:20010000C11DBE1D00000000240027002A0000000000250028002B000000000023002600F0
:20012000290004040404040404040202020202020303030303030102040810204080010256
:20014000040810200102040810200000000700020100000304060000000000000000990173
:20016000AA15920111241FBECFEFD8E0DEBFCDBF11E0A0E0B1E0E2EDF1E302C005900D92E1
:20018000AE35B107D9F714E0AEE5B1E001C01D92AF32B107E1F711E0C2E6D1E004C0229734
:2001A000FE010E94A118CE35D107C9F70E9401160C94DC180C940000A0E0B0E0E2EEF0E0AD
:2001C0000C94AD18EC01A880B980CA80DB80A114B104C104D10441F484E2A82E89EDB82EF6
:2001E0008BE5C82E87E0D82EC601B5012DE133EF41E050E00E94701827EA31E440E050E08E
:200200000E9410187B018C01C601B5012DE133EF41E050E00E947018CA01B9012CEE34EF21
:200220004FEF5FEF0E9410186E0D7F1D801F911F97FF04C0615070408040904868837983C8
:200240008A839B839B01AC015F77B901CA01CDB7DEB7EAE00C94C9180E94DC00089580E0F0
:2002600091E00E94DC00089560930001709301018093020190930301089581309105E1F502
:200280006F5F7F4F09F04DC08091040180935F0180E691E00E941C0E85E691E062E048E04A
:2002A00020E00E94331281E891E062E047E020E00E9433128DE991E062E045E020E00E943D
:2002C000331289EB91E060E841E851E00E94B6078CEB91E060E84DE951E00E94B60765E0B8
:2002E00070E080E090E024E130E040E050E00E94A716609307030895892B99F46F5F7F4FA3
:2003000081F48DE991E00E94BB1081E891E00E94BB1085E691E00E94BB1080E691E00E940B
:20032000200E089580E090E06FEF7FEF0E943D01089581E090E06FEF7FEF0E943D010895BF
:20034000AF92BF92CF92DF92EF92FF920F931F938091FE029091FF02019709F477C580ED62
:2003600092E065E00E9412098F3F09F061C580ED92E066E00E9412098F3F09F059C580EDE8
:2003800092E067E00E9412098F3F09F051C580ED92E068E00E9412098F3F09F049C589EBDD
:2003A00091E060E070E00E94240889EB91E060E070E00E94FC078CEB91E061E040E050E0DB
:2003C0000E944C0843C580910103882339F481E08093010380E691E064E305C01092010331
:2003E00080E691E065E30E94340E80ED92E061E070E00E94D3088823C1F180ED92E060E091
:2004000072E00E9405098823E1F08091CC029091CD02019729F41092CD021092CC0206C033
:2004200081E090E09093CD028093CC0284E690E09093CF028093CE028FEB91E00E94900E3C
:2004400014C080910203882339F481E08093020380E691E064E307C0109202031092080328
:2004600080E691E065E30E94340E80910203813009F092C080ED92E067E00E9412098038CC
:2004800051F00E94A912609303037093040380930503909306030E94A9122091030330919F
:2004A00004034091050350910603621B730B840B950B2091070330E048EE53E0F901E49F97
:2004C0009001E59F300DF49F300D1124442737FD4095542F261737074807590708F05CC090
:2004E0000E94A9126093030370930403809305039093060361E070E080E090E025E030E0DF
:2005000040E050E00E94A71660930803623070F060E270E080E090E024E330E040E050E073
:200520000E94A71680E691E00E94340E80910803843030F540910E0150910F018CEB91E0F3
:2005400061E00E944C086EEE72E080E090E00E94B7128CEB91E061E040E050E00E944C080C
:2005600080910E0190910F01181619061CF48FEC9FEF02C08DE290E090930F0180930E01CE
:2005800065E070E080E090E024E130E040E050E00E94A7166093070380ED92E060E170E0C5
:2005A0000E940509882399F080ED92E060E078E00E940509882359F060910D01662339F08B
:2005C000615060930D0180E691E00E94580E80ED92E060E470E00E940509882399F080EDC6
:2005E00092E060E078E00E940509882359F060910D016F3F39F06F5F60930D0180E691E0D1
:200600000E94580E80ED92E060E170E00E94D308882391F080ED92E060E074E00E94050996
:20062000882351F088E190E09093CF028093CE028FEB91E00E94900E80ED92E060E470E080
:200640000E94D308882391F080ED92E060E074E00E940509882351F089E190E09093CF0214
:200660008093CE028FEB91E00E94900E80ED92E060E170E00E94D308882301F180ED92E003
:2006800060E078E00E9405098823C1F480ED92E060E074E00E940509882381F48EE190E090
:2006A0009093C9028093C80284E690E09093CF028093CE028FEB91E00E94900E80ED92E0B4
:2006C00060E470E00E94D308882301F180ED92E060E078E00E9405098823C1F480ED92E006
:2006E00060E074E00E940509882381F486E990E09093C9028093C80284E690E09093CF021E
:200700008093CE028FEB91E00E94900E80ED92E060E170E00E94EC08882341F480ED92E006
:2007200060E470E00E94EC08882371F01092C9021092C80284E690E09093CF028093CE02F9
:200740008FEB91E00E94900E80ED92E060E270E00E94D308882381F086E990E09093C70299
:200760008093C60284E690E09093CF028093CE028FEB91E00E94900E80ED92E060E870E04B
:200780000E94D308882381F08EE190E09093C7028093C60284E690E09093CF028093CE0269
:2007A0008FEB91E00E94900E80ED92E060E270E00E94EC08882341F480ED92E060E870E0B0
:2007C0000E94EC08882371F01092C7021092C60284E690E09093CF028093CE028FEB91E006
:2007E0000E94900E80ED92E060E070E10E94D3088823D1F180ED92E060E074E00E9405093C
:20080000882321F080E691E068E024C080ED92E060E071E00E940509882321F080E691E066
:2008200062E018C080ED92E060E078E00E940509882321F080E691E069E00CC06DE070E032
:2008400080E090E021E130E040E050E00E94A71680E691E00E94340E1092CF021092CE0267
:200860008FEB91E00E94900E80ED92E060E070E40E94D308882309F456C080ED92E060E080
:2008800074E00E940509882361F080E691E066E00E94340E86E090E09093CF028093CE02AA
:2008A0003EC080ED92E060E071E00E940509882341F080E691E061E00E94340E81E090E071
:2008C0000FC080ED92E060E078E00E9405098823A1F080E691E06BE00E94340E8BE090E005
:2008E0009093CF028093CE028FEB91E00E94900E1092CF021092CE0216C061E170E080E049
:2009000090E029E130E040E050E00E94A71680E691E00E94340E1092CF021092CE028FEB84
:2009200091E00E94900E80ED92E060E070E20E94D308882309F442C080ED92E060E074E0FB
:200940000E940509882321F080E691E067E02CC080ED92E060E071E00E940509882321F045
:2009600080E691E063E020C080ED92E060E078E00E940509882361F080E691E06AE00E9497
:20098000340E8AE090E09093CF028093CE0212C060E270E080E090E024E330E040E050E0C9
:2009A0000E94A71680E691E00E94340E1092CF021092CE028FEB91E00E94900E80ED92E02E
:2009C00060E070E80E94D308882309F452C080ED92E060E074E00E9405098823A1F080E683
:2009E00091E065E00E94340E85E090E09093CF028093CE028FEB91E00E94900E1092CF0213
:200A00001092CE0236C080ED92E060E071E00E940509882361F080E691E064E00E94340E53
:200A200084E090E09093CF028093CE021EC080ED92E060E078E00E940509882321F080E6E4
:200A400091E06CE00CC069E170E080E090E020E230E040E050E00E94A71680E691E00E9469
:200A6000340E1092CF021092CE028FEB91E00E94900E80ED92E062E070E00E94D30888238B
:200A8000D9F08091CA029091CB02019729F41092CB021092CA0206C081E090E09093CB02A9
:200AA0008093CA0284E690E09093CF028093CE028FEB91E00E94900E80ED92E064E070E008
:200AC0000E94D3088823B9F190915F012091040180910501921751F480935F0180E691E0BE
:200AE00065E30E94340E86E190E019C0981771F480915E01882351F080935F0180E691E060
:200B000061E00E94340E87E190E009C020935F0180E691E064E30E94340E85E190E0909301
:200B2000CF028093CE028FEB91E00E94900E1092CF021092CE0280ED92E066E00E9412090F
:200B400020915F0100D000D090E0A0E0B0E0A22EBB24B094A194B108B394CC24B7FCC09445
:200B6000DC2C30E040E050E0EDB7FEB72183328343835483BC01CD0120E030E040E050E0D3
:200B80001FEFE12EF12C012D112D0E943C16AB01BC01FA0150930C0340930B0320910903C7
:200BA00030910A030F900F900F900F90241735077CF48091080190E0E21BF30B8E179F0734
:200BC000DCF0820F931F90930A038093090318C042175307ACF480910801A82FB0E0C90141
:200BE000841B950BA817B9073CF02A1B3B0B30930A032093090304C050930A03409309035E
:200C000080ED92E065E00E941209282F30E03093100320930F03C901C6978339910578F50B
:200C200080ED92E065E00E941209282F8091060163E00E942F1800D000D030E040E050E038
:200C4000A82EBB24B094A194B108B394CC24B7FCC094DC2C90E0A0E0B0E0EDB7FEB781838A
:200C60009283A383B483CA01B90126E330E040E050E0B8ECEB2EF12C012D112D64C0293C45
:200C8000310554F180ED92E065E00E9412092091060100D000D0E82EFF2400E010E0822FE6
:200CA00063E00E942F18A82EBB24CC24DD2430E040E050E0EDB7FEB72183328343835483B3
:200CC000C801B70129EC30E040E050E0AFEFEA2EF12C012D112D37C026333105F4F580ED03
:200CE00092E065E00E9412099091060100D000D0282F30E040E050E0A92EBB24B094A194D2
:200D0000B108B394CC24B7FCC094DC2C892F63E00E942F1890E0909581959F4FAA2797FDF2
:200D2000A095BA2FEDB7FEB781839283A383B483CA01B90120E030E040E050E0F5E3EF2EEC
:200D4000F12C012D112D0E943C167093100360930F030F900F900F900F90809101038130B9
:200D600081F460910F037091100389EB91E00E94FC076091090370910A0389EB91E00E94CB
:200D8000240880ED92E067E00E9412092091070100D000D090E0A0E0B0E0A22EBB24B09478
:200DA000A194B108B394CC24B7FCC094DC2C30E040E050E0EDB7FEB7218332834383548350
:200DC000BC01CD0120E030E040E050E0EFEFEE2EF12C012D112D0E943C16AB0170930E03F1
:200DE00060930D0380910901282F30E088279927821B930B0F900F900F900F908417950711
:200E00003CF44217530724F410920E0310920D0340910D0350910E038CEB91E061E00E94D4
:200E20004C0862E370E080E090E00E94B7120EC080ED92E00E94670B80ED92E068E070E056
:200E40000E94D308882309F0BECACFCA1F910F91FF90EF90DF90CF90BF90AF900895CF9298
:200E6000EF920F931F9340910B0150910C01662757FD6095762F8DE991E00E94C90F8CEB7F
:200E800091E060E00E94CD0881E891E040E855E260E070E00E94C90F89EB91E060E00E9420
:200EA000CD0889EB91E066EB73E00E948C088CEB91E066EB73E00E948C0889EB91E0609106
:200EC0000A010E94E60789EB91E060E070E00E94240889EB91E060E070E00E94FC0780E6B5
:200EE00091E00E94840E1AE11BC080ED92E06DE04BE02AE00CE0EE24E394CC240E946C0B98
:200F000090E09093FF028093FE02009711F0039711F410931103809111038F5F8093110302
:200F200080911103893108F380E691E060910D010E94580E80ED92E00E9417098093000342
:200F400085E691E040E051EE60E070E00E94C90F8FEB91E066EC72E04AE025E631E00E94D5
:200F6000890E1F910F91EF90CF900895FC016083528341830895DF93CF9300D000D0CDB701
:200F8000DEB7FC01DA01698390819A8381818B83890F860F8F778C83ED91FC910280F38177
:200FA000E02DCA01BE016F5F7F4F44E050E009950F900F900F900F90CF91DF910895FB0127
:200FC0004181528160810E94BB070895DF93CF9300D0CDB7DEB79C01603808F06FE76A836D
:200FE00081E18983CE010196B9010E94DF070F900F90CF91DF910895DF93CF9300D0CDB708
:20100000DEB7AC01272F221F2227221F265FCB016038710514F08FE790E03FEF81389307A3
:2010200014F481E89FEF97FF03C0909581959F4F8A832983CE010196BA010E94DF070F902E
:201040000F90CF91DF910895DF93CF9300D0CDB7DEB7AC01272F221F2227221F285FCB01A6
:201060006038710514F08FE790E03FEF8138930714F481E89FEF97FF03C0909581959F4F76
:201080008A832983CE010196BA010E94DF070F900F90CF91DF910895DF93CF9300D0CDB71B
:2010A000DEB7FC01623011F020E001C024E0CA014038510514F08FE790E03FEF8138930742
:2010C00014F481E89FEF97FF03C0909581959F4F8A83852F881F8827881F280F2983CE011F
:2010E0000196BF010E94DF070F900F90CF91DF91089597FF02C060E00CC021E38D3992079F
:2011000014F08CE991E38D599F4F64E670E00E943B188EE0962F08950F931F93DF93CF9387
:2011200000D0CDB7DEB78C01CB010E9479089A838983CE010196B8010E94DF070F900F903C
:20114000CF91DF911F910F9108951F93CF93DF93EC01162F662331F46CED75E080E090E0EE
:201160000E94B712E881F9810190F081E02DCE016AEA0995E881F9810284F385E02DCE0194
:201180000995112331F464EF71E080E090E00E94B712DF91CF911F910895FC01818192814A
:2011A0000E94A5080895FC01208D318D50E0C9018095909586239723892B09F051E040E046
:2011C000868997892827392726233723232B09F041E0852F84230895FC012689378950E092
:2011E000C9018095909586239723892B09F051E040E0808D918D2827392726233723232BBF
:2012000009F041E0852F8423089520E0FC01808D918D8095909586239723892B09F021E049
:20122000822F0895FC01E60FF11D80810895FC0183A5833011F481E00895813011F080E0D5
:20124000089582E00895CF92DF92EF92FF920F931F93CF93DF93EC01EFB6F8941D8AFF24FE
:20126000C62EDD24C7FCD09401E010E057C0960102C0359527958A95E2F7C901EE8DFF8DC2
:201280009D8D80FF0AC02081A80102C0440F551F9A95E2F7242B20830BC02081A80102C037
:2012A000440F551F9A95E2F7CA01809582238083EB8DFC8D2081C8010A8C02C0880F991FC5
:2012C0000A94E2F7809582238083EFBE84E090E00E941013F894ECA1FDA1808190E00BA0C1
:2012E00002C0959587950A94E2F780FF08C0C8010D8802C0880F991F0A94E2F7F82AEB8DA8
:20130000FC8D2081C8010A8C02C0880F991F0A94E2F7282B20838D898F5F8D8B8D898830DC
:2013200008F4A5CFEE8DFF8D208181E090E00D8C02C0880F991F0A94E2F7282B2083EFBE00
:2013400083E090E00E9410138F2DDF91CF911F910F91FF90EF90DF90CF900895BF92CF92EE
:20136000DF92EF92FF920F931F93CF93DF938C016B01BFB6F894DC019196ED91FC91929790
:20138000208181E090E090960C9002C0880F991F0A94E2F7809582238083BFBEC0E0D0E007
:2013A000E42EFF2408C0F601EC0FFD1FC80160810E9423092196CE15DF05ACF3F894D80128
:2013C0009196ED91FC919297208181E090E090960C90909702C0880F991F0A94E2F7282B7C
:2013E0002083BFBE9A966C9170E080E090E00E94B712DF91CF911F910F91FF90EF90DF9078
:20140000CF90BF900895CF93DF93EC0160E171E045E00E94AE09CE0165E171E049E00E947F
:20142000AE098CA5882331F0CE016EE171E045E00E94AE098DA5882331F0CE0163E271E0A8
:2014400049E00E94AE09CE016CE271E049E00E94AE09DF91CF9108955F926F927F928F9289
:201460009F92AF92BF92CF92DF92EF92FF920F931F93DF93CF93CDB7DEB765970FB6F89437
:20148000DEBF0FBECDBF4C01562E742E0E94A912D40196962D913D914D915C919997621B81
:2014A000730B840B950B0E945A175B016C016FB620E030E84BEB54E40E940C1818161CF4F4
:2014C000C4010E94030AF40162A570E0882777FD8095982F0E945C177B018C01C601B501B2
:2014E000A80197010E942A17882354F4C801B701A60195010E94C5160E942E170E94B71248
:20150000D40158968D919C91599757969C938E935697772029F100D000D0672D70E080E00E
:2015200090E02FEF30E040E050E0EDB7FEB7218332834383548320E030E040E050E0FFEF20
:20154000EF2EF12C012D112DE0E4AE2EB12CC12CD12C0E943C16762E0F900F900F900F906A
:20156000F894D4015E96ED91FC915F97408181E090E09C015D960C905D9702C0220F331F1E
:201580000A94E2F7422B40835B96ED91FC915C9740819C015A960C905A9702C0220F331F95
:2015A0000A94E2F7422B40839196ED91FC919297208190960C9002C0880F991F0A94E2F73E
:2015C0008095822380836FBE83E090E00E941013DE01119689E0FD0111928A95E9F781E099
:2015E000898382E48A835C827D829E01265F3F4F8CE0F90111928A95E9F700E010E07D0187
:20160000F701E00FF11FC40160810E942309F401E00FF11F80830F5F1F4F0930110581F7C5
:20162000D40111968C918937C9F49AE0E92EF12CEC0EFD1E840186E1C82ED12CCC0EDD1E1D
:20164000C401F70161917F010E942309D80119968C930F5F1F4FEC14FD0491F7F894D40120
:201660009196ED91FC919297208181E090E090960C90909702C0880F991F0A94E2F7282BD9
:2016800020836FBE13968D919C91149759969C938E9358970E94A912F40166A377A380A711
:2016A00091A765960FB6F894DEBF0FBECDBFCF91DF911F910F91FF90EF90DF90CF90BF9065
:2016C000AF909F908F907F906F905F90089560E040E00E942C0A08954F925F926F927F922A
:2016E0008F929F92AF92BF92CF92DF92EF92FF920F931F93DF93CF93CDB7DEB729970FB65C
:20170000F894DEBF0FBECDBF5C01F42E122F5E2C4C2C9FB6462F50E0FA01EA5CFE4FE49188
:2017200020E030E0F0E0CF01022E02C0959587950A94E2F780FF02C0822F06C02F5F3F4F76
:201740002830310581F780E0D5015A968C935A974E5D5E4FFA018491E82FF0E0EE0FFF1FE3
:20176000E25FFE4F859194915C969C938E935B974F2D50E0FA01EA5CFE4FE49120E030E0AD
:20178000F0E0CF01022E02C0959587950A94E2F780FF02C0822F06C02F5F3F4F2830310598
:2017A00081F780E0D5015D968C935D974E5D5E4FFA018491E82FF0E0EE0FFF1FE25FFE4F7D
:2017C000859194915F969C938E935E97412F50E0FA01EA5CFE4FE49120E030E0F0E0CF0141
:2017E000022E02C0959587950A94E2F780FF02C0822F06C02F5F3F4F2830310581F780E000
:20180000D50190968C9390974E5D5E4FFA018491E82FF0E0EE0FFF1FE25FFE4F8591949153
:2018200092969C938E939197402F50E0FA01EA5CFE4FE49120E030E0F0E0CF01022E02C0C4
:20184000959587950A94E2F780FF02C0822F06C02F5F3F4F2830310581F780E0D501939692
:201860008C9393974E5D5E4FFA018491E82FF0E0EE0FFF1FE85EFE4F8591949195969C938D
:201880008E939497862F61E00E945513812F61E00E9455138F2D61E00E945513802F60E00B
:2018A0000E945513802F61E00E949413F894D5015E96ED91FC915F97408121E030E0C901F2
:2018C0005D960C905D9702C0880F991F0A94E2F7482B40835B96ED91FC915C9780815A96E7
:2018E0000C9002C0220F331F0A94E2F7822B80839FBEC5010E94670BC5010E94670BF501D9
:201900008181813431F0833721F0893711F081E0BEC081E0D5019A968C93EE24FF24A1E048
:20192000CA2ED12C3E010894611C711C88248394C50160E171E045E00E94AE0983E090E061
:201940000E941013F894D5015E96ED91FC915F972081C6015D960C905D9702C0880F991F6F
:201960000A94E2F7282B20835B96ED91FC915C972081C6015A960C905A9702C0880F991F15
:201980000A94E2F7282B20839196ED91FC9192972081C60190960C9002C0880F991F0A94A6
:2019A000E2F78095822380839FBE83E090E00E94101300E010E0F801EB5CFE4FC501608198
:2019C0000E942309F301E00FF11F80830F5F1F4F0930110581F7F894D5019196ED91FC910C
:2019E00092972081C60190960C90909702C0880F991F0A94E2F7282B20839FBE8C819B9654
:201A00008C93C50165E171E049E00E94AE09442041F0C5016EE171E045E00E94AE09F50159
:201A200084A6552049F0C50163E271E049E00E94AE09D5019D968C92C5016CE271E049E03B
:201A40000E94AE09C5010E94670B552041F0F50181818937D9F0833711F483E018C0D5015C
:201A600011968C91833791F0BAE0EB16F10411F482E00DC0F50182A58F5F82A70894E11CD6
:201A8000F11CFBE0EF16F10409F052CF80E029960FB6F894DEBF0FBECDBFCF91DF911F9164
:201AA0000F91FF90EF90DF90CF90BF90AF909F908F907F906F905F904F9008951F920F9203
:201AC0000FB60F9211242F933F934F935F936F937F938F939F93AF93BF93EF93FF938091E2
:201AE000370387FF05C010928500109284002BC020913703332727FD30958091120390E065
:201B00002817390704F580913703992787FD9095FC01EE0FFF1FE80FF91FED5EFC4F8081DB
:201B200086FF11C080913703992787FD9095FC01EE0FFF1FE80FF91FED5EFC4F80818F73DB
:201B400060E00E949413809137038F5F8093370320913703332727FD30958091120390E0B2
:201B6000281739070CF04EC0809137038C300CF049C020918400309185008091370399274A
:201B800087FD9095FC01EE0FFF1FE80FF91FED5EFC4F81819281280F391F3093890020933C
:201BA000880080913703992787FD9095FC01EE0FFF1FE80FF91FED5EFC4F808186FF2BC0BB
:201BC00080913703992787FD9095FC01EE0FFF1FE80FF91FED5EFC4F80818F7361E00E94AE
:201BE000941319C080E49CE905C08091840090918500049690938900809388008FEF80930A
:201C0000370309C08091840090918500049680549C4940F3EACFFF91EF91BF91AF919F9177
:201C20008F917F916F915F914F913F912F910F900FBE0F901F901895FC01108212820895ED
:201C40000F931F938C01FC01A381B481ED91FC9111970284F385E02DCD010995F801148294
:201C600013821F910F910895FF920F931F938C01F62EFC01A381B481ED91FC9111970190B2
:201C8000F081E02DCD0160E70995F801A381B481ED91FC9111970190F081E02DCD016F2D95
:201CA000099581E0F80182831F910F91FF900895FF920F931F938C01F62EFC01A381B481BF
:201CC000ED91FC9111970190F081E02DCD0166E70995F801A381B481ED91FC9111970190F3
:201CE000F081E02DCD016F2D09951F910F91FF900895FC0174836383CB0140E056E960E09D
:201D000070E00E94761408956DE074E00E94790E0895FC01738362834483318320830895B0
:201D2000FF920F931F93CF93DF93EC01FC80A881B981ED91FC9111970190F081E02DCD018E
:201D400066E00995A881B981ED91FC9111970190F081E02DCD0165E80995A881B981ED91E0
:201D6000FC9111970190F081E02DCD016C81099500E010E010C0EA81FB81E00FF11F60815F
:201D8000F626ED91FC9111970190F081E02DCD0109950F5F1F4F8C8190E0A881B98108171E
:201DA00019074CF3ED91FC9111970190F081E02DCD016F2D0995DF91CF911F910F91FF904B
:201DC00008950F931F93CF93DF93FC01738D76957170A685B7859585772329F08C91892358
:201DE00009F454C004C08C91892309F04FC08389948920E001972FEF8F3F9207D9F7C589D9
:201E0000D689A685B785158560E031E040E050E000E0CE01202F01972FEF8F3F9207D9F7D6
:201E20008C91812311F0632B03C0832F80956823330F4F5F5F4F4830510559F78789908D54
:201E400020E001972FEF8F3F9207D9F77111609580917A0320917B0390E001968F73907058
:201E600030E08217930779F0E0917A03F0E0E65CFC4F608380917A0390E001968F739070F1
:201E800080937A0303C0838D8160838FDF91CF911F910F9108951F920F920FB60F92112442
:201EA0002F933F934F935F936F937F938F939F93AF93BF93EF93FF93809138039091390301
:201EC000009711F00E94E10EFF91EF91BF91AF919F918F917F916F915F914F913F912F9179
:201EE0000F900FBE0F901F9018951F920F920FB60F9211242F933F934F935F936F937F9312
:201F00008F939F93AF93BF93EF93FF938091380390913903009711F00E94E10EFF91EF91E3
:201F2000BF91AF919F918F917F916F915F914F913F912F910F900FBE0F901F9018951F9239
:201F40000F920FB60F9211242F933F934F935F936F937F938F939F93AF93BF93EF93FF93CD
:201F60008091380390913903009711F00E94E10EFF91EF91BF91AF919F918F917F916F918F
:201F80005F914F913F912F910F900FBE0F901F901895CF92DF92EF92FF920F931F93CF93E0
:201FA000DF93EC017A018B011A8E198E188E1F8A1E8A1D8A1C8A1B8A20E030E06901CC0C31
:201FC000DD1CC20ED31EB601660F771F660F771FAB0148595F4FFA0185919591A591B491CD
:201FE0008E159F05A007B107E9F4FB01E459FF4F859194919C8B8B8BFB01E259FF4F8591C4
:2020000094919E8B8D8BFB01E059FF4F85919491988F8F8BFB01EE58FF4F859194919A8F67
:20202000898F06C02F5F3F4F2D30310509F0C6CF8F89988D892B09F449C04C85463108F04E
:202040003DC090916800483010F484E005C04E3010F082E001C081E0892B809368004830AC
:2020600028F4EDE6F0E0ADE6B0E00BC04E3028F0ECE6F0E0ACE6B0E004C0EBE6F0E0ABE663
:20208000B0E05081483040F481E090E002C0880F991F4A95E2F710C0242F30E04E3018F4DC
:2020A0002850304002C02E50304081E090E002C0880F991F2A95E2F7852B8C93898D9A8D02
:2020C00020E001972FEF8F3F9207D9F780913803909139038C179D0781F08B8D8E7F8B8F73
:2020E0009FB7F89410927A0380917A0380937B03D0933903C09338039FBFDF91CF911F91B5
:202100000F91FF90EF90DF90CF900895FC014485463180F5483028F4EDE6F0E0ADE6B0E09A
:202120000BC04E3028F4EBE6F0E0ABE6B0E004C0ECE6F0E0ACE6B0E05081483040F481E012
:2021400090E002C0880F991F4A95E2F710C0242F30E04E3018F42850304002C02E503040F1
:2021600081E090E002C0880F991F2A95E2F7809585238C930895FC0182E491E09183808381
:20218000CF010E948610089520913803309139032817390731F490917B0380917A03981731
:2021A00019F42FEF3FEF0FC0E0917B03F0E0E65CFC4F208180917B0390E001968F73907072
:2021C00080937B0330E0C901089520913803309139032817390719F020E030E00EC0809197
:2021E0007A0320917B0390E0805C9F4F821B910960E470E00E943B189C01C90108950F9393
:202200001F93DC0159968D919C915A97892B49F481E090E013969C938E93129720E030E090
:2022200097C00FB7F8945B968C915B975196ED91FC91529750962C91509781FF8DC08081C2
:20224000822B808359968D919C915A97059620E001972FEF8F3F9207D9F75B968C915B971B
:2022600081FF35C031E040E050E070E010E0832F90E0862397235196ED91FC915297509602
:202280002C915097892B29F0808120952823208303C08081822B808359968D919C915A978A
:2022A000212F01972FEF8F3F9207D9F7330F4F5F5F4F48305105D9F65196ED91FC915297CB
:2022C000908150968C9150978095892333C031E040E050E070E010E0832F90E08623972329
:2022E0005196ED91FC91529750962C915097892B21F08081822B808304C08081209528233E
:20230000208359968D919C915A97212F01972FEF8F3F9207D9F7330F4F5F5F4F4830510546
:20232000D9F65196ED91FC915297808150969C915097892B80830FBF59968D919C915A9748
:2023400020E001972FEF8F3F9207D9F721E030E0C9011F910F910895808120952823208324
:2023600071CF20913803309139032817390749F49FB7F89410927A0380917A0380937B0358
:202380009FBF089520913803309139032817390731F490917B0380917A03981719F42FEFAE
:2023A0003FEF0AC0E0917B03F0E0E65CFC4F8081282F332727FD3095C90108951F93CF93C3
:2023C000DF93EC01162F862F60E00E9455138B8D81FD04C0812F61E00E9494131C87212FD3
:2023E00030E0C9018A5C9E4FFC0184918D872E5D3E4FF9016491E62FF0E0EE0FFF1FE85EBD
:20240000FE4F859194919F878E87DF91CF911F9108951F93CF93DF93EC01162F862F61E02E
:202420000E94551360E08B8D81FF61E0812F0E949413212F30E0C9018A5C9E4FFC01849171
:20244000888B2E5D3E4FF9016491E62FF0E0EE0FFF1FE25FFE4F859194919A8B898BDF91F0
:20246000CF911F910895FF920F931F938C01F62EFC011382128288EE93E0A0E0B0E08483F3
:202480009583A683B78382E491E091838083148A138A168A158A108E178A128E118E838DCB
:2024A0002170220F8C7F822B838FC801642F0E940912C8016F2D0E94DE111F910F91FF90A2
:2024C00008951F920F920FB60F9211242F933F938F939F93AF93BF938091800390918103BD
:2024E000A0918203B0918303309184030196A11DB11D232F2D5F2D3720F02D570196A11DC9
:20250000B11D209384038093800390938103A0938203B093830380917C0390917D03A09193
:202520007E03B0917F030196A11DB11D80937C0390937D03A0937E03B0937F03BF91AF91F6
:202540009F918F913F912F910F900FBE0F901F9018958FB7F8942091800330918103409118
:202560008203509183038FBFB901CA0108959B01AC017FB7F89480917C0390917D03A09192
:202580007E03B0917F0366B5A89B05C06F3F19F00196A11DB11D7FBFBA2FA92F982F882785
:2025A000860F911DA11DB11D62E0880F991FAA1FBB1F6A95D1F7BC012DC0FFB7F894809154
:2025C0007C0390917D03A0917E03B0917F03E6B5A89B05C0EF3F19F00196A11DB11DFFBFAB
:2025E000BA2FA92F982F88278E0F911DA11DB11DE2E0880F991FAA1FBB1FEA95D1F7861B31
:20260000970B885E9340C8F2215030404040504068517C4F211531054105510571F6089524
:20262000019739F0880F991F880F991F02970197F1F70895789484B5826084BD84B5816003
:2026400084BD85B5826085BD85B5816085BDEEE6F0E0808181608083E1E8F0E010828081C9
:2026600082608083808181608083E0E8F0E0808181608083E1EBF0E0808184608083E0EBC4
:20268000F0E0808181608083EAE7F0E0808184608083808182608083808181608083808130
:2026A000806880831092C1000895CF93DF93482F50E0CA018A5C9E4FFC0134914E5D5E4FFC
:2026C000FA018491882369F190E0880F991FFC01EC5FFE4FA591B491FC01E25FFE4FC59135
:2026E000D491662351F42FB7F8948C91932F909589238C93888189230BC0623061F42FB719
:20270000F8948C91932F909589238C938881832B88832FBF06C09FB7F8948C91832B8C931C
:202720009FBFDF91CF910895482F50E0CA01865B9E4FFC012491CA018A5C9E4FFC0194911C
:202740004E5D5E4FFA013491332309F440C0222351F1233071F0243028F42130A1F022302F
:2027600011F514C02630B1F02730C1F02430D9F404C0809180008F7703C0809180008F7DA4
:202780008093800010C084B58F7702C084B58F7D84BD09C08091B0008F7703C08091B0003B
:2027A0008F7D8093B000E32FF0E0EE0FFF1FE25FFE4FA591B4912FB7F894662321F48C9117
:2027C0009095892302C08C91892B8C932FBF089508951F920F920FB60F9211242F933F93CD
:2027E0004F938F939F93EF93FF938091C00082FD1DC04091C6002091C5033091C6032F5F3A
:202800003F4F2F7330708091C7039091C8032817390771F0E091C503F091C603EB57FC4F31
:2028200040833093C6032093C50302C08091C600FF91EF919F918F914F913F912F910F90C6
:202840000FBE0F901F901895E0911904F0911A04E05CFF4F8191919120813181805C9F4FA8
:20286000821B930B60E470E00E943B18892B11F00E94E81308951F920F920FB60F921124B8
:202880002F933F938F939F93EF93FF932091090430910A0480910B0490910C0428173907DF
:2028A00031F48091C1008F7D8093C10014C0E0910B04F0910C04E753FC4F208180910B0416
:2028C00090910C0401968F73907090930C0480930B042093C600FF91EF919F918F913F9130
:2028E0002F910F900FBE0F901F901895AF92BF92DF92EF92FF920F931F93CF93DF93EC0187
:202900007A018B01DD24403081EE580780E0680780E0780711F0DD24D39491E0A92EB12C35
:20292000EC89FD89DD2069F0C50108A002C0880F991F0A94E2F7808360E079E08DE390E0D4
:2029400005C0108260E874E88EE190E0A80197010E944E182150304040405040569547959C
:202960003795279580E12030380720F0DD2011F0DD24D6CFE889F9893083EA89FB892083EB
:2029800019A2EE89FF89408121E030E0C9010C8C02C0880F991F0A94E2F7482B4083EE8914
:2029A000FF894081C9010D8C02C0880F991F0A94E2F7482B4083EE89FF894081C9010E8C89
:2029C00002C0880F991F0A94E2F7482B4083EE89FF8980810F8C02C0220F331F0A94E2F7E2
:2029E000209528232083DF91CF911F910F91FF90EF90DF90BF90AF900895DC011C96ED915F
:202A0000FC911D97E05CFF4F8191919120813181805C9F4F821B930B60E470E00E943B18D6
:202A20000895DC011C96ED91FC911D97E05CFF4F20813181E054F040DF01AE5BBF4F8D9155
:202A40009C9111972817390719F42FEF3FEF07C08D919C91E80FF91F8081282F30E0C90176
:202A60000895DC011C96ED91FC911D97E05CFF4F20813181E054F040DF01AE5BBF4F8D9115
:202A80009C9111972817390719F42FEF3FEF10C08D919C911197E80FF91F20818D919C91CB
:202AA000119701968F73907011969C938E9330E0C9010895DC0191968C919197882339F04A
:202AC0005496ED91FC915597808186FFF9CF91961C920895CF93DF93EC01EE85FF85E05C61
:202AE000FF4F20813181E054F0402F5F3F4F2F733070DF01AE5BBF4F8D919C91119728174A
:202B00003907D1F3E05CFF4F80819181E054F040E80FF91F6083EE85FF85E05CFF4F318389
:202B20002083EE89FF89208181E090E00F8C02C0880F991F0A94E2F7282B208381E089A3DB
:202B4000EC89FD8980818064808381E090E0DF91CF9108951092100410920F0488EE93E000
:202B6000A0E0B0E08093110490931204A0931304B093140482E591E090930E0480930D040E
:202B800085E893E090931A048093190489EC93E090931C0480931B0485EC90E090931E0461
:202BA00080931D0484EC90E09093200480931F0480EC90E0909322048093210481EC90E04A
:202BC000909324048093230482EC90E0909326048093250486EC90E090932804809327049A
:202BE00084E08093290483E080932A0487E080932B0485E080932C0481E080932D040895FA
:202C00000895CF93DF930E941A130E9400160E942F07C4E2D4E10E94A0012097E1F30E9419
:202C20002414F9CFCF92DF92EF92FF920F931F93CF93DF937C016B018A01C0E0D0E00FC0F5
:202C4000D6016D916D01D701ED91FC910190F081E02DC7010995C80FD91F01501040011553
:202C6000110571F7CE01DF91CF911F910F91FF90EF90DF90CF9008952F923F924F925F920A
:202C80006F927F928F929F92AF92BF92CF92DF92EF92FF920F931F93DF93CF93CDB7DEB719
:202CA0003B014C0119012A016D897E898F89988D6A197B098C099D09621A730A840A950AA4
:202CC000A40193010E941018E218F30804091509A80197010E9470182A0D3B1D4C1D5D1DF4
:202CE000B901CA01CF91DF911F910F91FF90EF90DF90CF90BF90AF909F908F907F906F9069
:202D00005F904F903F902F900895EF92FF920F931F937B018C01611571058105910529F426
:202D200020E030E040E050E00BC00E942F01A80197010E947018AC01CB01DA019C01AD018C
:202D4000B901CA011F910F91FF90EF900895EF92FF920F931F937B018C0162177307840706
:202D6000950764F4261B370B480B590BCA01B9010E948516E60EF71E081F191FB701C8017A
:202D80001F910F91FF90EF9008955058BB27AA270ED008C1F9D030F0FED020F031F49F3F6C
:202DA00011F41EF4EEC00EF4E095E7FBE4C0E92F0AD180F3BA17620773078407950718F008
:202DC00071F49EF522C10EF4E0950B2EBA2FA02D0B01B90190010C01CA01A0011124FF2787
:202DE000591B99F0593F50F4503E68F11A16F040A22F232F342F4427585FF3CF46953795A2
:202E00002795A795F0405395C9F77EF41F16BA0B620B730B840BBAF09150A1F0FF0FBB1FF8
:202E2000661F771F881FC2F70EC0BA0F621F731F841F48F4879577956795B795F7959E3FB5
:202E400008F0B3CF9395880F08F09927EE0F9795879508956CD008F481E00895BCD088F065
:202E60009F5790F0B92F9927B751A0F0D1F0660F771F881F991F1AF0BA95C9F712C0B130A5
:202E800081F0C3D0B1E00895C0C0672F782F8827B85F39F0B93FCCF3869577956795B39532
:202EA000D9F73EF490958095709561957F4F8F4F9F4F0895E89409C097FB3EF49095809561
:202EC000709561957F4F8F4F9F4F9923A9F0F92F96E9BB279395F695879577956795B7955C
:202EE000F111F8CFFAF4BB0F11F460FF1BC06F5F7F4F8F4F9F4F16C0882311F096E911C0D8
:202F0000772321F09EE8872F762F05C0662371F096E8862F70E060E02AF09A95660F771F5F
:202F2000881FDAF7880F9695879597F90895990F0008550FAA0BE0E8FEEF16161706E80758
:202F4000F907C0F012161306E407F50798F0621B730B840B950B39F40A2661F0232B242B9C
:202F6000252B21F408950A2609F4A140A6958FEF811D811D089597F99F6780E870E060E021
:202F800008959FEF80EC089500240A941616170618060906089500240A941216130614060B
:202FA00005060895092E0394000C11F4882352F0BB0F40F4BF2B11F460FF04C06F5F7F4FF1
:202FC0008F4F9F4F089557FD9058440F551F59F05F3F71F04795880F97FB991F61F09F3F51
:202FE00079F087950895121613061406551FF2CF4695F1DF08C0161617061806991FF1CFCD
:2030000086957105610508940895E894BB2766277727CB0197F908958ADF08F48FEF08957E
:20302000629FD001739FF001829FE00DF11D649FE00DF11D929FF00D839FF00D749FF00D44
:20304000659FF00D9927729FB00DE11DF91F639FB00DE11DF91FBD01CF0111240895991BE2
:2030600079E004C0991F961708F0961B881F7A95C9F78095089597FB092E07260AD077FDB9
:2030800004D049D006D000201AF4709561957F4F0895F6F7909581959F4F0895A1E21A2E5B
:2030A000AA1BBB1BFD010DC0AA1FBB1FEE1FFF1FA217B307E407F50720F0A21BB30BE40B08
:2030C000F50B661F771F881F991F1A9469F760957095809590959B01AC01BD01CF010895C0
:2030E00097FB092E05260ED057FD04D0D7DF0AD0001C38F450954095309521953F4F4F4F9D
:203100005F4F0895F6F790958095709561957F4F8F4F9F4F0895AA1BBB1B51E107C0AA1FAE
:20312000BB1FA617B70710F0A61BB70B881F991F5A95A9F780959095BC01CD010895EE0F6A
:20314000FF1F0590F491E02D09942F923F924F925F926F927F928F929F92AF92BF92CF92D2
:20316000DF92EF92FF920F931F93CF93DF93CDB7DEB7CA1BDB0B0FB6F894DEBF0FBECDBF79
:2031800009942A88398848885F846E847D848C849B84AA84B984C884DF80EE80FD800C81BC
:2031A0001B81AA81B981CE0FD11D0FB6F894DEBF0FBECDBFED01089511E0C2E6D1E004C063
:2031C000FE010E94A1182296C436D107C9F7F894FFCF0100000078785A64050A0A80251470
:2031E00014000143000100014400010300000000014D000001014F00FFFF03000000014349
:2032000000005A5A5A5A5A0145005A5A5A5A5A5A00000000FF101216E510C410C211B111F5
:20322000000000006A151216FD14311511155A150FBECDBFED01089511E0C2E6D1E004C009
:20324000FE010E94A1182296C436D107C9F7F894FFCF0100000078785A64050A0A802514EF
:2032600014000143000100014400010300000000014D000001014F00FFFF030000000143C8
:20328000FFFFFFFFFFFFFFFFFFFFFFFFFFFFFFFFFFFFFFFFFFFFFFFFFFFFFFFFFFFFFFFF4E
:2032A000FFFFFFFFFFFFFFFFFFFFFFFFFFFFFFFFFFFFFFFFFFFFFFFFFFFFFFFFFFFFFFFF2E
:2032C000FFFFFFFFFFFFFFFFFFFFFFFFFFFFFFFFFFFFFFFFFFFFFFFFFFFFFFFFFFFFFFFF0E
:2032E000FFFFFFFFFFFFFFFFFFFFFFFFFFFFFFFFFFFFFFFFFFFFFFFFFFFFFFFFFFFFFFFFEE
:207E0000112484B714BE81FFF0D085E08093810082E08093C00088E18093C10086E08093FC
:207E2000C20080E18093C4008EE0C9D0259A86E020E33CEF91E0309385002093840096BBAD
:207E4000B09BFECF1D9AA8958150A9F7CC24DD2488248394B5E0AB2EA1E19A2EF3E0BF2E79
:207E6000A2D0813461F49FD0082FAFD0023811F0013811F484E001C083E08DD089C0823404
:207E800011F484E103C0853419F485E0A6D080C0853579F488D0E82EFF2485D0082F10E0A0
:207EA000102F00270E291F29000F111F8ED068016FC0863521F484E090D080E0DECF84364D
:207EC00009F040C070D06FD0082F6DD080E0C81680E7D80618F4F601B7BEE895C0E0D1E0ED
:207EE00062D089930C17E1F7F0E0CF16F0E7DF0618F0F601B7BEE89568D007B600FCFDCF1A
:207F0000A601A0E0B1E02C9130E011968C91119790E0982F8827822B932B1296FA010C016F
:207F200087BEE89511244E5F5F4FF1E0A038BF0751F7F601A7BEE89507B600FCFDCF97BE85
:207F4000E89526C08437B1F42ED02DD0F82E2BD03CD0F601EF2C8F010F5F1F4F84911BD0B8
:207F6000EA94F801C1F70894C11CD11CFA94CF0CD11C0EC0853739F428D08EE10CD085E9AE
:207F80000AD08FE07ACF813511F488E018D01DD080E101D065CF982F8091C00085FFFCCF0A
:207FA0009093C60008958091C00087FFFCCF8091C00084FD01C0A8958091C6000895E0E68F
:207FC000F0E098E1908380830895EDDF803219F088E0F5DFFFCF84E1DECF1F93182FE3DF47
:207FE0001150E9F7F2DF1F91089580E0E8DFEE27FF270994FFFFFFFFFFFFFFFFFFFF040425
:00000001FF
